:100000000C9463000C948B000C948B000C948B006C
:100010000C948B000C948B000C948B000C947F043C
:100020000C948B000C948B000C948B000C948B0024
:100030000C948B000C948B000C948B000C948B0014
:100040000C9459050C948B000C9427050C94010515
:100050000C948B000C948B000C948B000C948B00F4
:100060000C948B000C948B000000000024002700EF
:100070002A000000000023002600290000000008DC
:10008000000201000003040700000000000000005F
:10009000010204081020408001020408102001021F
:1000A0000408102000000000250028002B00040494
:1000B0000404040404040202020202020303030310
:1000C00003030200600811241FBECFEFD8E0DEBF9B
:1000D000CDBF26E0AEE1B1E001C01D92A13AB2076A
:1000E000E1F711E0A0E0B1E0EAEEF1E102C0059035
:1000F0000D92AE31B107D9F710E0C3E6D0E004C0ED
:100100002197FE010E948D08C236D107C9F70E94CF
:10011000A3050C94F3080C940000CF92DF92EF92A9
:10012000FF920F931F93CF93DF936C017A018B01A2
:10013000C0E0D0E0CE15DF0589F0D8016D918D01CA
:10014000D601ED91FC910190F081E02DC601099559
:10015000892B11F47E0102C02196ECCFC701DF91FB
:10016000CF911F910F91FF90EF90DF90CF90089566
:10017000FC01918D828D981761F0828DDF01A80FAF
:10018000B11D5D968C91928D9F5F9F73928F90E0D1
:1001900008958FEF9FEF0895FC01918D828D981740
:1001A00031F0828DE80FF11D858D90E008958FEF7D
:1001B0009FEF0895FC01918D228D892F90E0805C46
:1001C0009F4F821B91098F739927089589E291E0CF
:1001D0000E94DA0021E0892B09F420E0822F0895A3
:1001E000FC01848DDF01A80FB11DA35ABF4F2C91D4
:1001F000848D90E001968F739927848FA689B789A3
:100200002C93A089B1898C9180648C93938D848D7B
:10021000981306C00288F389E02D80818F7D80834A
:100220000895EF92FF920F931F93CF93DF93EC010A
:1002300081E0888F9B8D8C8D981305C0E889F989A2
:10024000808185FD24C0F62E0B8D10E00F5F1F4FBF
:100250000F731127E02E8C8DE8120CC00FB607FC2F
:10026000FACFE889F989808185FFF5CFCE010E9418
:10027000F000F1CF8B8DFE01E80FF11DE35AFF4F27
:10028000F0820B8FEA89FB898081806207C0EE894A
:10029000FF896083E889F98980818064808381E0B7
:1002A00090E0DF91CF911F910F91FF90EF90089513
:1002B000CF93DF93EC01888D8823C9F0EA89FB890D
:1002C000808185FD05C0A889B9898C9186FD0FC004
:1002D0000FB607FCF5CF808185FFF2CFA889B989D9
:1002E0008C9185FFEDCFCE010E94F000E7CFDF912A
:1002F000CF91089580E090E0892B29F00E94E600DC
:1003000081110C9400000895833081F028F481302D
:1003100099F08230A1F008958730A9F08830B9F0C3
:100320008430D1F4809180008F7D03C08091800063
:100330008F7780938000089584B58F7702C084B54D
:100340008F7D84BD08958091B0008F7703C0809128
:10035000B0008F7D8093B0000895CF93DF93282F56
:1003600030E0F901E458FF4F8491F901E057FF4F65
:10037000D491F901E255FF4FC491CC2391F0811142
:100380000E948401EC2FF0E0EE0FFF1FEE58FF4FAC
:10039000A591B491EC91ED2381E090E021F480E00F
:1003A00002C080E090E0DF91CF9108951F93CF933A
:1003B000DF93282F30E0F901E458FF4F8491F901D1
:1003C000E057FF4FD491F901E255FF4FC491CC2380
:1003D000C9F0162F81110E948401EC2FF0E0EE0F7E
:1003E000FF1FEC55FF4FA591B4918FB7F8941111F1
:1003F00005C09C91ED2FE095E92302C0EC91ED2B17
:10040000EC938FBFDF91CF911F910895CF93DF932E
:1004100090E0FC01E057FF4F2491FC01E255FF4FB3
:100420008491882361F190E0880F991FFC01E859BD
:10043000FF4FC591D491FC01EC55FF4FA591B491AC
:10044000611109C09FB7F894888120958223888321
:10045000EC912E230BC0623061F49FB7F894388181
:10046000822F809583238883EC912E2B2C939FBF22
:1004700006C08FB7F894E8812E2B28838FBFDF91B9
:10048000CF9108958F929F92AF92BF92CF92DF92B9
:10049000EF92FF92CF93209100012A3021F02F3F5D
:1004A00009F0F0C104C0E2ECF0E0C49172C02AE0AF
:1004B00020930001E2ECF0E0C491CF3F09F4E2C1E7
:1004C000C13009F1C23009F441C0C11162C014BC8D
:1004D00015BC24B5226024BD25B5216025BDE8EBFF
:1004E000F0E0E491F0E0EE0FFF1FEC55FF4F259197
:1004F00034913093940620939306EAE9F0E0E49176
:10050000E093920648C010928000109281002091E2
:100510008100286020938100209181002160209338
:100520008100E8EBF0E0E491F0E0EE0FFF1FEC5506
:10053000FF4F259134913093910620939006EAE97C
:10054000F0E0E491E0938F06C1E025C01092B00086
:100550001092B1002091B00022602093B000209151
:10056000B10021602093B100E8EBF0E0E491F0E00D
:10057000EE0FFF1FEC55FF4F2591349130938E06FF
:1005800020938D06EAE9F0E0E491E0938C06C2E066
:1005900002C0C7FD77C14C0161E08AE00E940602FB
:1005A000A12CB12C8C2F8D7F09F0A9C060E072E1E5
:1005B0008AE790E0A50194010E94980869017A01F8
:1005C000BA01A90141505109610971094F3F510513
:1005D0006105710509F008F445C060E472E48FE03C
:1005E00090E0A50194010E949808BA01A901415028
:1005F000510961097109C230E9F44F3F51056105A4
:10060000710509F008F43CC160E970ED83E090E009
:10061000A50194010E949808BA01A901415051090D
:10062000610971094F3F51056105710509F0A8F590
:1006300083E05EC04F3F510561057105A9F0A0F050
:1006400068E478EE81E090E0A50194010E949808AA
:10065000BA01A9014150510961097109CC2309F47A
:10066000BEC006C181E001C082E0CC2389F040C059
:10067000D701C6012AE0B595A795979587952A9544
:10068000D1F7AC01BD01415051096109710985E003
:1006900095B5987F892B85BD66C068E478EE81E0CA
:1006A00090E0A50194010E949808BA01A901415067
:1006B0005109610971094F3F51056105710509F043
:1006C00008F48BC064E274EF80E090E0A50194012F
:1006D0000E949808BA01A9014150510961097109A4
:1006E0004F3F51056105710511F008F097C085E095
:1006F0009091B100987F892B8093B1002EC060E06B
:1007000072E18AE790E0A50194010E949808BA017D
:10071000A90141505109610971094115510581E053
:100720006807710580F068E478EE81E090E0A5014B
:1007300094010E949808BA01A90141505109610928
:10074000710993E001C091E0C13039F480918100DA
:10075000887F892B8093810018C0C130B1F0C230EE
:1007600049F1C1118FC047BD8FEF9FEFDC0180932E
:100770009D0690939E06A0939F06B093A00680913D
:100780006E00826080936E007DC05093890040931C
:1007900088008FEF9FEFDC018093990690939A0673
:1007A000A0939B06B0939C0680916F00826080931B
:1007B0006F0068C04093B3008FEF9FEFDC01809320
:1007C000950690939606A0939706B093980680910D
:1007D000700082608093700055C084E089CF4F3FE5
:1007E000510561057105C1F0B8F062E17AE780E07A
:1007F00090E0A50194010E949808BA01A901415016
:100800005109610971094F3F51056105710511F0E9
:1008100008F02ECF84E03CCF83E03ACF62E17AE764
:1008200080E090E0A50194010E949808BA01A90116
:1008300041505109610971094F3F51056105710529
:10084000A9F0A0F0D701C6013AE0B595A795979514
:1008500087953A95D1F7AC01BD0141505109610925
:100860007109CC2309F413CF87E042CF86E0FDCE97
:100870004F3F51056105710509F080F684E0F5CE22
:1008800082E036CFCF91FF90EF90DF90CF90BF9076
:10089000AF909F908F9008953FB7F8948091230177
:1008A00090912401A0912501B091260126B5A89B25
:1008B00005C02F3F19F00196A11DB11D3FBFBA2FF2
:1008C000A92F982F8827820F911DA11DB11DBC0152
:1008D000CD0142E0660F771F881F991F4A95D1F717
:1008E00008952FB7F89460911F01709120018091B5
:1008F0002101909122012FBF08950E9493081F9219
:100900000F920FB60F9211242F933F934F935F9343
:100910006F937F938F939F93AF93BF93EF93FF93C7
:100920008091950690919606A0919706B0919806B1
:10093000892B8A2B8B2B59F180918C06E0918D06A7
:10094000F0918E0690818927808380919506909101
:100950009606A0919706B0919806181619061A06E1
:100960001B060CF03DC08091950690919606A091D3
:100970009706B09198060197A109B1098093950651
:1009800090939606A0939706B093980629C08091FD
:100990000001E2ECF0E0E4919FEF90930001E13080
:1009A000B9F098F0E230C9F4909170009D7F909377
:1009B000700091E09093B0009091B100987F9460A6
:1009C0009093B1001092B30008C010926E0005C061
:1009D00090916F009D7F90936F0060E00E94D60120
:1009E000FF91EF91BF91AF919F918F917F916F9107
:1009F0005F914F913F912F910F900FBE0F901F90DD
:100A000018951F920F920FB60F9211242F933F93B8
:100A10004F935F936F937F938F939F93AF93BF9306
:100A2000EF93FF9389E291E00E94F000FF91EF9134
:100A3000BF91AF919F918F917F916F915F914F91F6
:100A40003F912F910F900FBE0F901F9018951F92FE
:100A50000F920FB60F9211242F938F939F93EF93C2
:100A6000FF93E0913901F0913A018081E0913F01DB
:100A7000F091400182FD12C09081809142018F5F10
:100A80008F7320914301821751F0E0914201F0E011
:100A9000E75DFE4F958F8093420101C08081FF91F9
:100AA000EF919F918F912F910F900FBE0F901F90FC
:100AB00018951F920F920FB60F9211242F933F9308
:100AC0008F939F93AF93BF9380911F0190912001CB
:100AD000A0912101B091220130911E0123E0230F4A
:100AE0002D3720F40196A11DB11D05C026E8230F66
:100AF0000296A11DB11D20931E0180931F019093AA
:100B00002001A0932101B0932201809123019091B3
:100B10002401A0912501B09126010196A11DB11DCE
:100B20008093230190932401A0932501B093260183
:100B3000BF91AF919F918F913F912F910F900FBED9
:100B40000F901F901895789484B5826084BD84B509
:100B5000816084BD85B5826085BD85B5816085BDB8
:100B600080916E00816080936E0010928100809170
:100B700081008260809381008091810081608093F8
:100B80008100809180008160809380008091B1001D
:100B900084608093B1008091B00081608093B00048
:100BA00080917A00846080937A0080917A008260DC
:100BB00080937A0080917A00816080937A0080919E
:100BC0007A00806880937A001092C100E091390128
:100BD000F0913A0182E08083E0913501F091360195
:100BE0001082E0913701F09138018FEC80831092F0
:100BF0004101E0913D01F0913E0186E08083E0916A
:100C00003B01F0913C01808180618083E0913B0158
:100C1000F0913C01808188608083E0913B01F091FC
:100C20003C01808180688083E0913B01F0913C0130
:100C300080818F7D808362E082E00E94060262E014
:100C400084E00E94060262E08CE00E94060262E0FC
:100C50008DE00E94060261E08AE00E94060261E0E7
:100C600085E00E94060261E086E00E94060261E0E3
:100C700087E00E94060260E08AE00E94D60160E000
:100C800085E00E94D60160E086E00E94D60160E027
:100C900087E00E94D60110928206109281068FEFA3
:100CA00093E0909384068093830605E400937C0090
:100CB00080917A00806480937A0080917A0086FD2A
:100CC000FCCFC091780080917900D0E0D82BD093F0
:100CD0008B06C0938A060E947104C0908606D0904D
:100CE0008706E0908806F0908906DC01CB018C191C
:100CF0009D09AE09BF094597A105B10508F4C9C012
:100D00008091850610918006811195C0E09183063F
:100D1000F0918406C0908106D0908206CE16DF0640
:100D200024F09C2D8D2D9F0103C096019E2F8F2FA7
:100D3000C217D30734F0292F382FC217D3070CF46A
:100D40009E010D2C000CEE08FF08C901330FAA0B01
:100D5000BB0B9C01AD012C193D094E095F09A2ECAA
:100D6000B1E00E94B7084F01FF0FAA08BB08A50118
:100D700094012C193D094E095F090E9498086901E8
:100D80007A0182E3C80ED11CE11CF11CD09228012B
:100D9000C0922701112309F44AC080917C069091EA
:100DA0007D06883522E09207B4F161E086E00E947A
:100DB000D60160E085E00E94D6010E944C042B0120
:100DC0003C013CE2832E99249394A12CB12C0E94E7
:100DD0004C04DC01CB0184199509A609B709883EAA
:100DE0009340A105B10558F081E0881A9108A10847
:100DF000B10828EE420E23E0521E611C711C8114C2
:100E00009104A104B10419F760E086E00E94D601C4
:100E1000109280060CC0FC01EE0FFF1FE453FE4F42
:100E2000D182C082019690937D0680937C06C60194
:100E30000E94420224C0111122C0E0907E06F09070
:100E40007F0680917C0690917D06E816F9063CF0BD
:100E50001092850660E087E00E94D60110C0F7017D
:100E6000EE0FFF1FE453FE4F808191810E944202EA
:100E70008FEFE81AF80AF0927F06E0927E060E9451
:100E8000710460938606709387068093880690931A
:100E900089061091850611110CC082E00E94AD01F7
:100EA000892B09F4C9C084E00E94AD01892B09F4A3
:100EB000C8C08091CB01811130C011112EC08CE0CF
:100EC0000E94AD01892B49F50E947104C090C901AF
:100ED000D090CA010D2C000CEE08FF08DC01CB01FC
:100EE0008C199D09AE09BF0985369105A105B1058B
:100EF000A0F0C1E0C093CB010E9471047093CA01BD
:100F00006093C90180918006882309F49FC01092E4
:100F1000800660E085E00E94D6018091C8018111C1
:100F200042C08091800681113EC08DE00E94AD01DB
:100F3000892BC9F50E947104C090C601D090C701E9
:100F40000D2C000CEE08FF08DC01CB018C199D096B
:100F5000AE09BF0985369105A105B10520F144E030
:100F600050E065E171E089E291E00E948D0042E08D
:100F700050E06AE171E089E291E00E948D00C1E0F9
:100F8000C093C8010E9471047093C7016093C601A9
:100F900080918506882309F473C01092850660E06D
:100FA00087E00E94D6018091CB018823F9F08091DF
:100FB000850681111BC08CE00E94AD010197B1F440
:100FC0000E947104C090C901D090CA010D2C000C80
:100FD000EE08FF08DC01CB018C199D09AE09BF09A1
:100FE00085369105A105B10508F064C08091C8015E
:100FF0008823F9F08091800681111BC08DE00E944A
:10100000AD010197B1F40E947104C090C601D09067
:10101000C7010D2C000CEE08FF08DC01CB018C1978
:101020009D09AE09BF0985369105A105B10508F0F6
:1010300044C00E947A013ACED0938206C0938106C2
:1010400032CFD0938406C093830633CF61E085E02E
:101050000E94D601C093800610927D0610927C06F5
:101060000E947104DC01CB014497A109B10980936E
:10107000860690938706A0938806B09389064DCF85
:1010800061E087E00E94D60110927F0610927E06F2
:10109000C09385060E947104DC01CB014497A1092D
:1010A000B1098093860690938706A0938806B09333
:1010B000890679CF1092CB0199CF1092C801B9CF90
:1010C000E9E2F1E01382128288EE93E0A0E0B0E062
:1010D00084839583A683B78389E091E0918380839D
:1010E00085EC90E09587848784EC90E097878687ED
:1010F00080EC90E0918B808B81EC90E0938B828BE5
:1011000082EC90E0958B848B86EC90E0978B868BBD
:10111000118E128E138E148E0895EE0FFF1F059000
:10112000F491E02D099481E090E0F8940C94F30898
:10113000052E97FB1EF400940E94AF0857FD07D0C0
:101140000E94C20807FC03D04EF40C94AF085095DF
:101150004095309521953F4F4F4F5F4F08959095A3
:101160008095709561957F4F8F4F9F4F08950E9496
:10117000E408A59F900DB49F900DA49F800D911D34
:1011800011240895A1E21A2EAA1BBB1BFD010DC05C
:10119000AA1FBB1FEE1FFF1FA217B307E407F50727
:1011A00020F0A21BB30BE40BF50B661F771F881F03
:1011B000991F1A9469F760957095809590959B0199
:1011C000AC01BD01CF010895A29FB001B39FC00142
:1011D000A39F700D811D1124911DB29F700D811D63
:0A11E0001124911D0895F894FFCF2B
:1011EA00FF010000000000000011018D00DA00B8C4
:0E11FA0000CC0058016F647477000D0A0000ED
:107E0000112484B714BE81FFF0D085E080938100F7
:107E100082E08093C00088E18093C10086E0809377
:107E2000C20080E18093C4008EE0C9D0259A86E02C
:107E300020E33CEF91E0309385002093840096BBD3
:107E4000B09BFECF1D9AA8958150A9F7CC24DD24C4
:107E500088248394B5E0AB2EA1E19A2EF3E0BF2EE7
:107E6000A2D0813461F49FD0082FAFD0023811F036
:107E7000013811F484E001C083E08DD089C08234E0
:107E800011F484E103C0853419F485E0A6D080C0E4
:107E9000853579F488D0E82EFF2485D0082F10E0AE
:107EA000102F00270E291F29000F111F8ED06801E7
:107EB0006FC0863521F484E090D080E0DECF843638
:107EC00009F040C070D06FD0082F6DD080E0C81688
:107ED00080E7D80618F4F601B7BEE895C0E0D1E017
:107EE00062D089930C17E1F7F0E0CF16F0E7DF06D8
:107EF00018F0F601B7BEE89568D007B600FCFDCFD4
:107F0000A601A0E0B1E02C9130E011968C91119780
:107F100090E0982F8827822B932B1296FA010C0160
:107F200087BEE89511244E5F5F4FF1E0A038BF0790
:107F300051F7F601A7BEE89507B600FCFDCF97BE46
:107F4000E89526C08437B1F42ED02DD0F82E2BD052
:107F50003CD0F601EF2C8F010F5F1F4F84911BD097
:107F6000EA94F801C1F70894C11CD11CFA94CF0C13
:107F7000D11C0EC0853739F428D08EE10CD085E9AC
:107F80000AD08FE07ACF813511F488E018D01DD067
:107F900080E101D065CF982F8091C00085FFFCCF94
:107FA0009093C60008958091C00087FFFCCF809118
:107FB000C00084FD01C0A8958091C6000895E0E648
:107FC000F0E098E1908380830895EDDF803219F02E
:107FD00088E0F5DFFFCF84E1DECF1F93182FE3DFCA
:107FE0001150E9F7F2DF1F91089580E0E8DFEE27F6
:047FF000FF270994CA
:027FFE00040479
:0400000300007E007B
:00000001FF
