:100000000C945E000C9486000C9486000C94860080
:100010000C9486000C9486000C9486000C944C057D
:100020000C9486000C9486000C9486000C94860038
:100030000C9486000C9486000C9486000C94860028
:100040000C9400060C9486000C94CE050C94A80524
:100050000C9486000C9486000C9486000C94860008
:100060000C9486000C948600000000080002010039
:100070000003040700000000000000000200000070
:1000800000250028002B0000000000240027002A83
:100090000004040404040404040202020202020331
:1000A000030303030301020408102040800102043B
:1000B00008102001020408102000AE0811241FBE01
:1000C000CFEFD8E0DEBFCDBF11E0A0E0B1E0E2E5C8
:1000D000F2E102C005900D92A232B107D9F723E0F8
:1000E000A2E2B1E001C01D92A032B207E1F710E038
:1000F000CEE5D0E004C02197FE010E941C09CD3559
:10010000D107C9F70E944A060C9427090C940000F5
:1001100090E0FC01EB55FF4F2491FC01EF56FF4F9F
:100120008491882399F090E0880F991FFC01E9578A
:10013000FF4FA591B491FC01E358FF4F8591949135
:100140008FB7F894EC91E22BEC938FBF08958F92C8
:100150009F92AF92BF92CF92DF92EF92FF92CF9396
:1001600020910301233021F02F3F09F0EFC104C09B
:10017000ECE7F0E0C49172C023E020930301ECE7C8
:10018000F0E0C491CF3F09F4E1C1C13009F1C230C0
:1001900009F441C0C11162C014BC15BC24B5226071
:1001A00024BD25B5216025BDE4E9F0E0E491F0E04F
:1001B000EE0FFF1FE358FF4F259134913093130347
:1001C00020931203E8EAF0E0E491E093110348C0C1
:1001D000109280001092810020918100286020936D
:1001E000810020918100216020938100E4E9F0E00A
:1001F000E491F0E0EE0FFF1FE358FF4F259134919B
:100200003093100320930F03E8EAF0E0E491E093C9
:100210000E03C1E025C01092B0001092B1002091F1
:10022000B00022602093B0002091B10021602093A3
:10023000B100E4E9F0E0E491F0E0EE0FFF1FE358D5
:10024000FF4F2591349130930D0320930C03E8EA7E
:10025000F0E0E491E0930B03C2E002C0C7FD76C179
:100260004C0183E00E948800A12CB12C8C2F8D7F43
:1002700009F0A9C060E072E18AE790E0A50194016D
:100280000E94FD0869017A01BA01A9014150510992
:10029000610971094F3F51056105710509F008F4C5
:1002A00045C060E472E48FE090E0A50194010E94F3
:1002B000FD08BA01A9014150510961097109C23013
:1002C000E9F44F3F51056105710509F008F43CC19F
:1002D00060E970ED83E090E0A50194010E94FD08C3
:1002E000BA01A90141505109610971094F3F5105F6
:1002F0006105710509F0A8F583E05EC04F3F510527
:1003000061057105A9F0A0F068E478EE81E090E065
:10031000A50194010E94FD08BA01A90141505109AB
:1003200061097109CC2309F4BEC006C181E001C096
:1003300082E0CC2389F040C0D701C6012AE0B59500
:10034000A795979587952A95D1F7AC01BD014150A6
:1003500051096109710985E095B5987F892B85BDA3
:1003600066C068E478EE81E090E0A50194010E9407
:10037000FD08BA01A90141505109610971094F3FB6
:1003800051056105710509F008F48BC064E274EF52
:1003900080E090E0A50194010E94FD08BA01A90146
:1003A00041505109610971094F3F510561057105BE
:1003B00011F008F097C085E09091B100987F892BEB
:1003C0008093B1002EC060E072E18AE790E0A50161
:1003D00094010E94FD08BA01A90141505109610927
:1003E00071094115510581E06807710580F068E4E5
:1003F00078EE81E090E0A50194010E94FD08BA0129
:10040000A901415051096109710993E001C091E0CE
:10041000C13039F480918100887F892B80938100DD
:1004200018C0C130B1F0C23049F1C1118FC047BD11
:100430008FEF9FEFDC0180931C0390931D03A0932B
:100440001E03B0931F0380916E00826080936E0044
:100450007DC050938900409388008FEF9FEFDC01AF
:100460008093180390931903A0931A03B0931B036E
:1004700080916F00826080936F0068C04093B300EA
:100480008FEF9FEFDC018093140390931503A093EB
:100490001603B09317038091700082608093700000
:1004A00055C084E089CF4F3F510561057105C1F00A
:1004B000B8F062E17AE780E090E0A50194010E9443
:1004C000FD08BA01A90141505109610971094F3F65
:1004D00051056105710511F008F02ECF84E03CCF85
:1004E00083E03ACF62E17AE780E090E0A5019401F1
:1004F0000E94FD08BA01A901415051096109710921
:100500004F3F510561057105A9F0A0F0D701C60163
:100510003AE0B595A795979587953A95D1F7AC01AF
:10052000BD014150510961097109CC2309F413CF70
:1005300087E042CF86E0FDCE4F3F51056105710552
:1005400009F080F684E0F5CE82E036CFCF91FF90BF
:10055000EF90DF90CF90BF90AF909F908F900895D5
:10056000CF92DF92EF92FF920F931F93CF93DF937F
:100570006C017A018B01C0E0D0E0CE15DF0589F077
:10058000D8016D918D01D601ED91FC910190F08122
:10059000E02DC6010995892B11F47E0102C0219638
:1005A000ECCFC701DF91CF911F910F91FF90EF909A
:1005B000DF90CF900895FC01918D828D981761F0A6
:1005C000828DDF01A80FB11D5D968C91928D9F5F8A
:1005D0009F73928F90E008958FEF9FEF0895FC0135
:1005E000918D828D981731F0828DE80FF11D858DE8
:1005F00090E008958FEF9FEF0895FC01918D228D7B
:10060000892F90E0805C9F4F821B91098F739927FF
:1006100008958EE692E00E94FD0221E0892B09F404
:1006200020E0822F0895FC01848DDF01A80FB11D09
:10063000A35ABF4F2C91848D90E001968F73992718
:10064000848FA689B7892C93A089B1898C91806405
:100650008C93938D848D981306C00288F389E02DC6
:1006600080818F7D80830895EF92FF920F931F9377
:10067000CF93DF93EC0181E0888F9B8D8C8D981355
:1006800005C0E889F989808185FD24C0F62E0B8D8F
:1006900010E00F5F1F4F0F731127E02E8C8DE812B3
:1006A0000CC00FB607FCFACFE889F989808185FF75
:1006B000F5CFCE010E941303F1CF8B8DFE01E80F21
:1006C000F11DE35AFF4FF0820B8FEA89FB8980818D
:1006D000806207C0EE89FF896083E889F98980819B
:1006E0008064808381E090E0DF91CF911F910F9132
:1006F000FF90EF900895CF93DF93EC01888D8823CE
:10070000C9F0EA89FB89808185FD05C0A889B9897E
:100710008C9186FD0FC00FB607FCF5CF808185FF59
:10072000F2CFA889B9898C9185FFEDCFCE010E94C7
:100730001303E7CFDF91CF91089580E090E0892BFC
:1007400029F00E94090381110C940000089590E0A3
:10075000FC01E859FF4F3491FC01EB55FF4F249108
:10076000FC01EF56FF4FE491EE2309F43BC0332325
:1007700039F1333091F038F43130A9F0323001F5ED
:1007800084B58F7D12C0373091F03830A1F034300D
:10079000B9F4809180008F7D03C0809180008F77B5
:1007A000809380000DC084B58F7784BD09C080918F
:1007B000B0008F7703C08091B0008F7D8093B00030
:1007C000F0E0EE0FFF1FE358FF4FA591B4918FB7F4
:1007D000F894EC91611103C020952E2301C02E2BBB
:1007E0002C938FBF089590910301981324C0ECE7D8
:1007F000F0E0E4919FEF90930301E130B9F098F0BD
:10080000E230C9F4909170009D7F9093700091E068
:100810009093B0009091B100987F94609093B10054
:100820001092B30008C010926E0005C090916F0046
:100830009D7F90936F0060E00C94A7031F93CF936C
:10084000DF93182FEB010E948800209711F460E0DD
:1008500004C0CF3FD10539F461E0812FDF91CF9102
:100860001F910C94A703E12FF0E0E859FF4FE491AA
:10087000E330F9F048F4E130B9F0E230A1F584B5A5
:10088000806284BDC8BD34C0E730E9F0E83019F1BA
:10089000E43049F580918000806280938000D0939D
:1008A0008B00C0938A0024C084B5806884BDC7BD16
:1008B0001FC080918000806880938000D093890061
:1008C000C093880015C08091B00080688093B0000C
:1008D000C093B3000DC08091B00080628093B000DF
:1008E000C093B40005C0C038D1050CF0B5CFAFCF70
:1008F000DF91CF911F9108952FB7F8946091270150
:10090000709128018091290190912A012FBF0895AB
:10091000CF93DF9360E070E085E00E941E0460E00A
:1009200070E086E00E941E0460E070E089E00E94B2
:100930001E0460E070E08AE00E941E04C0E6D2E07F
:10094000EE81FF81EE0FFF1FEC5FFE4F60E570E070
:1009500080810E941E04EC81FD81EE0FFF1FEC5F81
:10096000FE4F60EA70E080810E941E04EA81FB81F4
:10097000EE0FFF1FEC5FFE4F60EF70E08081DF91B4
:10098000CF910C941E048F929F92AF92BF920F93BF
:100990001F93CF93DF93CDB7DEB7A1970FB6F8942F
:1009A000DEBF0FBECDBF19A2423008F44AE08E016F
:1009B0000F5D1F4F842E912CA12CB12CA501940109
:1009C0000E94DB08E62FB901CA0101501109EA3083
:1009D00014F4E05D01C0E95CD801EC93232B242BD7
:1009E000252B61F70115110571F0F8010190002028
:1009F000E9F73197AF01401B510BB8018EE692E049
:100A00000E94B00202C080E090E0A1960FB6F89478
:100A1000DEBF0FBECDBFDF91CF911F910F91BF9071
:100A2000AF909F908F900895CF92DF92EF92FF92B8
:100A3000CF93DF936C01990FEE08FF08F7FE1FC0FC
:100A4000E0916E02F0916F020190F081E02D6DE275
:100A50008EE692E00995EC0166277727CB016C19A9
:100A60007D098E099F094AE00E94C3048C0F9D1FD7
:100A7000DF91CF91FF90EF90DF90CF9008954AE003
:100A8000C701B601DF91CF91FF90EF90DF90CF903B
:100A90000C94C3040E9422091F920F920FB60F926A
:100AA00011242F933F934F935F936F937F938F9373
:100AB0009F93AF93BF93EF93FF9380911403909113
:100AC0001503A0911603B0911703892B8A2B8B2B4A
:100AD00051F180910B03E0910C03F0910D03908193
:100AE000892780838091140390911503A0911603A8
:100AF000B0911703181619061A061B06C4F4809144
:100B0000140390911503A0911603B0911703019758
:100B1000A109B1098093140390931503A0931603C0
:100B2000B093170304C0809103010E94F303FF9167
:100B3000EF91BF91AF919F918F917F916F915F9155
:100B40004F913F912F910F900FBE0F901F901895CE
:100B50001F920F920FB60F9211242F933F934F9332
:100B60005F936F937F938F939F93AF93BF93EF9315
:100B7000FF938EE692E00E941303FF91EF91BF91E5
:100B8000AF919F918F917F916F915F914F913F9125
:100B90002F910F900FBE0F901F9018951F920F92DC
:100BA0000FB60F9211242F938F939F93EF93FF9380
:100BB000E0917E02F0917F028081E0918402F091C9
:100BC000850282FD12C09081809187028F5F8F73B2
:100BD00020918802821751F0E0918702F0E0E259FB
:100BE000FD4F958F8093870201C08081FF91EF9127
:100BF0009F918F912F910F900FBE0F901F9018957E
:100C00001F920F920FB60F9211242F933F938F9341
:100C10009F93AF93BF938091270190912801A0915A
:100C20002901B0912A013091260123E0230F2D37AD
:100C300020F40196A11DB11D05C026E8230F0296E0
:100C4000A11DB11D209326018093270190932801B7
:100C5000A0932901B0932A01809122019091230150
:100C6000A0912401B09125010196A11DB11D809391
:100C7000220190932301A0932401B0932501BF91F9
:100C8000AF919F918F913F912F910F900FBE0F9039
:100C90001F901895789484B5826084BD84B5816076
:100CA00084BD85B5826085BD85B5816085BD809137
:100CB0006E00816080936E001092810080918100AF
:100CC00082608093810080918100816080938100A7
:100CD000809180008160809380008091B100846069
:100CE0008093B1008091B00081608093B0008091CA
:100CF0007A00846080937A0080917A008260809389
:100D00007A0080917A00816080937A0080917A00E5
:100D1000806880937A001092C100E0917E02F09189
:100D20007F0282E08083E0917A02F0917B02108260
:100D3000E0917C02F0917D028FEC8083109286021C
:100D4000E0918202F091830286E08083E09180024C
:100D5000F0918102808180618083E0918002F09136
:100D60008102808188608083E0918002F09181021D
:100D7000808180688083E0918002F091810280818F
:100D80008F7D8083C8E1D1E0D0936902C09368026F
:100D900081E090E0909363028093620290936502F9
:100DA0008093640290936702809366020E947C04A1
:100DB00070936B0260936A0223E420932C01D0931A
:100DC0009101C093900140915C0250915D0234E624
:100DD00030932D018CE890E09093930180939201E1
:100DE00020932E01909395018093940120932F01DD
:100DF00090939701809396013093300190939901DD
:100E0000809398012093310190939B0180939A01E4
:100E10002093320190939D0180939C013093330184
:100E200090939F0180939E01209334019093A101A0
:100E30008093A001209335019093A3018093A20198
:100E4000209336019093A5018093A40133E630935B
:100E500037019093A7018093A601209338019093C6
:100E6000A9018093A801209339019093AB0180934D
:100E7000AA0120933A019093AD018093AC0128E63A
:100E800020933B01D093AF01C093AE0130933C015E
:100E90009093B1018093B00120933D019093B301F1
:100EA0008093B20120933E019093B5018093B401E9
:100EB00030933F019093B7018093B6012093400196
:100EC0009093B9018093B801209341019093BB01A5
:100ED0008093BA01309342019093BD018093BC018D
:100EE000209343019093BF018093BE01209344015E
:100EF0009093C1018093C001209345019093C30159
:100F00008093C20131E4309346019093C5018093F0
:100F1000C401209347019093C7018093C601209399
:100F200048019093C9018093C8012093490190938F
:100F3000CB018093CA01CA014E9690935D028093C3
:100F40005C0201E010E09924939494E0E92EF12CE6
:100F50000E947C0470936D0260936C0220916A027F
:100F600030916B02621B730B809168029091690251
:100F7000681779070CF484C080910201882371F10D
:100F80000E948804809164029091650290936702A8
:100F90008093660280916202909163029093650251
:100FA000809364022091000130910101C9010196F2
:100FB000243031051CF4382F292F02C034E020E002
:100FC00030936202209363028530910574F1F092B0
:100FD0000101E09200011092020132C00E948804D7
:100FE00080916402909165029093670280936602FB
:100FF00080916202909163029093650280936402F3
:101000002091000130910101C90101972230310581
:101010001CF0382F292F02C031E020E0309362020B
:1010200020936302181619062CF490930101809303
:10103000000106C01093010100930001909202018B
:1010400080916202909163020E9414058091640273
:10105000909165020E94140580916602909167024A
:101060000E94140542E050E06EE171E08EE692E0ED
:101070000E94B0020E947C0470936B0260936A022B
:10108000C0915E02D0915F02C0905C02D0905D0280
:10109000CC15DD050CF04FC0209789F080916C02D3
:1010A00090916D0220915A0230915B02821B930B4A
:1010B000209158023091590282179307E4F183E09E
:1010C0000E94F303FE01EE0FFF1FE057FE4FA080CA
:1010D000B180FE01E45DFE4F8081813619F48CED14
:1010E00090E018C0813419F489EE90E013C088367E
:1010F00019F487EF90E00EC0833619F486E091E092
:1011000009C0833419F485E191E004C0843621F4E8
:1011100086E291E00E94A700B0925902A092580284
:101120000E947C0470935B0260935A022196D093D4
:101130005F02C0935E0280915E0290915F028C1507
:101140009D0549F483E00E94F30310922B01109255
:101150005F0210925E020E949D03FACEEEE6F2E07C
:101160001382128288EE93E0A0E0B0E0848395833E
:10117000A683B78382E191E09183808385EC90E040
:101180009587848784EC90E09787868780EC90E051
:10119000918B808B81EC90E0938B828B82EC90E042
:1011A000958B848B86EC90E0978B868B118E128EBC
:1011B000138E148E0895A1E21A2EAA1BBB1BFD01EB
:1011C0000DC0AA1FBB1FEE1FFF1FA217B307E40726
:1011D000F50720F0A21BB30BE40BF50B661F771F7E
:1011E000881F991F1A9469F760957095809590955E
:1011F0009B01AC01BD01CF010895052E97FB1EF4A4
:1012000000940E94140957FD07D00E94DB0807FCD8
:1012100003D04EF40C9414095095409530952195C7
:101220003F4F4F4F5F4F0895909580957095619512
:101230007F4F8F4F9F4F0895EE0FFF1F0590F49142
:10124000E02D099481E090E0F8940C942709F8943B
:02125000FFCFCE
:10125200010001FF00000500060009000A0000006D
:1012620000003403B002FD02DB02EF027B030D0A31
:0212720000007A
:00000001FF
