:100000000C9464000C948C000C948C000C948C0068
:100010000C948C000C948C000C948C000C94B80301
:100020000C948C000C948C000C948C000C948C0020
:100030000C948C000C948C000C948C000C948C0010
:100040000C94AD040C948C000C9402030C94DC0210
:100050000C948C000C948C000C948C000C948C00F0
:100060000C948C000C948C000000000024002700ED
:100070002A0000000000250028002B0000000000DE
:1000800023002600290004040404040404040202DA
:100090000202020203030303030301020408102007
:1000A0004080010204081020010204081020000012
:1000B0000008000201000003040700000000000027
:1000C00000000200690B4E0B11241FBECFEFD8E0D9
:1000D000DEBFCDBF12E0A0E0B1E0E2EAFFE102C086
:1000E00005900D92A63AB107D9F726E0A6EAB2E04C
:1000F00001C01D92A333B207E1F710E0C3E6D0E0E0
:1001000004C02197FE010E94720DC236D107C9F7C3
:100110000E9434060C94C40F0C940000EF92FF92DE
:100120000F931F93CF93DF93FB0124813581E080F0
:10013000F180FC0104811581E114F10411F480E0E7
:1001400017C02115310599F0EC01020F131FB801FA
:100150000E947002882399F3288139818C819D81C6
:10016000B701820F931F0E94860F1D830C8381E0CD
:10017000DF91CF911F910F91FF90EF9008950E9412
:100180006F0FCF93DF93DC01ED91FC91EB01A88120
:10019000B981309711F01097C9F4109759F0EB011D
:1001A0002C813D81232B31F08C9190E091958195AC
:1001B000910914C0309781F0DC0114968D919C91C7
:1001C0001597892B49F0808190E008C0BD01CF01CF
:1001D000DF91CF910C947D0F80E090E0DF91CF9183
:1001E00008950F931F93CF93DF938C01EB01FC01D4
:1001F000808191810097B1F06881798161157105E5
:1002000079F0428153812C813D814217530740F0A0
:100210000E94860F8C819D81F8019583848313C091
:100220000E940D0E88819981F801918380838A81D3
:100230009B81938382838C819D81958384831982A2
:1002400018821B821A821D821C82DF91CF911F911E
:100250000F9108950895CF92DF92EF92FF920F933E
:100260001F93CF93DF936C017A018B01C0E0D0E044
:10027000CE15DF0589F0D8016D918D01D601ED9184
:10028000FC910190F081E02DC6010995892B11F4B4
:100290007E0102C02196ECCFC701DF91CF911F9163
:1002A0000F91FF90EF90DF90CF900895FC01918D1A
:1002B000828D981761F0828DDF01A80FB11D5D96C8
:1002C0008C91928D9F5F9F73928F90E008958FEF36
:1002D0009FEF0895FC01918D828D981731F0828DEA
:1002E000E80FF11D858D90E008958FEF9FEF089541
:1002F000FC01918D228D892F90E0805C9F4F821BA5
:1003000091098F739927089584E194E00E94780100
:1003100021E0892B09F420E0822F0895FC01848DCF
:10032000DF01A80FB11DA35ABF4F2C91848D90E01F
:1003300001968F739927848FA689B7892C93A089FA
:10034000B1898C9180648C93938D848D981306C0B1
:100350000288F389E02D80818F7D80830895EF925C
:10036000FF920F931F93CF93DF93EC0181E0888F6F
:100370009B8D8C8D981305C0E889F989808185FD56
:1003800024C0F62E0B8D10E00F5F1F4F0F73112747
:10039000E02E8C8DE8120CC00FB607FCFACFE8896E
:1003A000F989808185FFF5CFCE010E948E01F1CFC2
:1003B0008B8DFE01E80FF11DE35AFF4FF0820B8F8A
:1003C000EA89FB898081806207C0EE89FF896083AA
:1003D000E889F98980818064808381E090E0DF9101
:1003E000CF911F910F91FF90EF900895CF93DF93DE
:1003F000EC01888D8823C9F0EA89FB89808185FD1D
:1004000005C0A889B9898C9186FD0FC00FB607FC7D
:10041000F5CF808185FFF2CFA889B9898C9185FFBE
:10042000EDCFCE010E948E01E7CFDF91CF910895ED
:1004300080E090E0892B29F00E94840181110C94C6
:1004400000000895833081F028F4813099F08230E3
:10045000A1F008958730A9F08830B9F08430D1F444
:10046000809180008F7D03C0809180008F77809382
:100470008000089584B58F7702C084B58F7D84BDD8
:1004800008958091B0008F7703C08091B0008F7D78
:100490008093B00008953FB7F8948091090490913B
:1004A0000A04A0910B04B0910C0426B5A89B05C0CA
:1004B0002F3F19F00196A11DB11D3FBFBA2FA92FE3
:1004C000982F8827820F911DA11DB11DBC01CD0160
:1004D00042E0660F771F881F991F4A95D1F708954C
:1004E0000F931F93CF93DF93EC018881998100973D
:1004F00029F02A813B812617370788F48B016F5F2B
:100500007F4F0E94A50E009761F0998388831B831B
:100510000A832C813D81232B11F4FC01108281E0A0
:1005200001C080E0DF91CF911F910F910895EF926C
:10053000FF920F931F93CF93DF93EC017B018A010E
:10054000BA010E9470022881398181110DC02115E4
:10055000310519F0C9010E940D0E198218821D8201
:100560001C821B821A8206C01D830C83B701C9013D
:100570000E94860FCE01DF91CF911F910F91FF90C6
:10058000EF900895FC01808191810C940D0EFC0187
:1005900011821082138212821582148261157105F4
:1005A00051F0FB0101900020E9F73197AF01461BA4
:1005B000570B0C94970208951F920F920FB60F924B
:1005C00011242F933F934F935F936F937F938F9358
:1005D0009F93AF93BF93EF93FF9384E194E00E94C6
:1005E0008E01FF91EF91BF91AF919F918F917F917C
:1005F0006F915F914F913F912F910F900FBE0F9090
:100600001F9018951F920F920FB60F9211242F93DF
:100610008F939F93EF93FF93E0912404F09125042F
:100620008081E0912A04F0912B0482FD12C0908118
:1006300080912D048F5F8F7320912E04821751F0CB
:10064000E0912D04F0E0EC5EFB4F958F80932D043C
:1006500001C08081FF91EF919F918F912F910F9019
:100660000FBE0F901F901895CF93DF93282F30E087
:10067000F901E255FF4F8491F901E656FF4FD491FD
:10068000F901EA57FF4FC491CC2391F081110E94E8
:100690002202EC2FF0E0EE0FFF1FE458FF4FA59170
:1006A000B491EC91ED2381E090E021F480E002C070
:1006B00080E090E0DF91CF9108951F93CF93DF9377
:1006C000282F30E0F901E255FF4F8491F901E656F9
:1006D000FF4FD491F901EA57FF4FC491CC23C9F0E1
:1006E000162F81110E942202EC2FF0E0EE0FFF1F67
:1006F000EE58FF4FA591B4918FB7F894111105C032
:100700009C91ED2FE095E92302C0EC91ED2BEC9349
:100710008FBFDF91CF911F9108959091030198139E
:1007200024C0E2ECF0E0E4919FEF90930301E1300C
:10073000B9F098F0E230C9F4909170009D7F9093E9
:10074000700091E09093B0009091B100987F946018
:100750009093B1001092B30008C010926E0005C0D3
:1007600090916F009D7F90936F0060E00C945D030B
:100770001F920F920FB60F9211242F933F934F9316
:100780005F936F937F938F939F93AF93BF93EF93F9
:10079000FF938091100490911104A0911204B091E4
:1007A0001304892B8A2B8B2B51F180910F04E0913C
:1007B0000D04F0910E0490818927808380911004AC
:1007C00090911104A0911204B09113041816190607
:1007D0001A061B06C4F48091100490911104A09194
:1007E0001204B09113040197A109B1098093100478
:1007F00090931104A0931204B093130404C0809149
:1008000003010E948D03FF91EF91BF91AF919F91E2
:100810008F917F916F915F914F913F912F910F90A9
:100820000FBE0F901F901895CF93DF9390E0FC01BF
:10083000E656FF4F2491FC01EA57FF4F849188232D
:1008400061F190E0880F991FFC01E859FF4FC591B5
:10085000D491FC01EE58FF4FA591B491611109C0EC
:100860009FB7F8948881209582238883EC912E236A
:100870000BC0623061F49FB7F8943881822F809565
:1008800083238883EC912E2B2C939FBF06C08FB7B8
:10089000F894E8812E2B28838FBFDF91CF910895A4
:1008A0008E3008F08E508770806480937C00809139
:1008B0007A00806480937A0080917A0086FDFCCF74
:1008C000809178002091790090E0922B08958F928A
:1008D0009F92AF92BF92CF92DF92EF92FF926B0105
:1008E0007C010E944B024B015C01C114D104E10464
:1008F000F104F1F00E944B02DC01CB018819990947
:10090000AA09BB09883E9340A105B10570F321E017
:10091000C21AD108E108F10888EE880E83E0981E1B
:10092000A11CB11CC114D104E104F10419F7DDCFFD
:10093000FF90EF90DF90CF90BF90AF909F908F90FF
:1009400008952FB7F8946091050470910604809182
:100950000704909108042FBF08951F920F920FB6BD
:100960000F9211242F933F938F939F93AF93BF9335
:100970008091050490910604A0910704B0910804A9
:100980003091040423E0230F2D3720F40196A11D9C
:10099000B11D05C026E8230F0296A11DB11D2093AD
:1009A00004048093050490930604A0930704B09375
:1009B00008048091090490910A04A0910B04B0915D
:1009C0000C040196A11DB11D8093090490930A04A3
:1009D000A0930B04B0930C04BF91AF919F918F91A2
:1009E0003F912F910F900FBE0F901F901895CF93AE
:1009F000DF93EC0161E08DE00E945D0385E08C9F58
:100A000090018D9F300D11243093AA022093A902EA
:100A100085E090E09093A7028093A60210920201D5
:100A20000E94A1046093AB027093AC028093AD026C
:100A30009093AE0281E08093A802809103018830F8
:100A400021F08F3F09F0D8C004C0E2ECF0E0C4917F
:100A500074C088E080930301E2ECF0E0E491EF3FA2
:100A600009F4CAC0E13011F1E23009F442C0E111E9
:100A700063C014BC15BC84B5826084BD85B581603B
:100A800085BDEEE8F0E0E491F0E0EE0FFF1FEE58D8
:100A9000FF4F859194919093FB038093FA03E2EAD0
:100AA000F0E0E491E093F903C0E049C010928000C7
:100AB00010928100809181008860809381008091F4
:100AC0008100816080938100EEE8F0E0E491F0E045
:100AD000EE0FFF1FEE58FF4F859194919093F8030E
:100AE0008093F703E2EAF0E0E491E093F603C1E0DB
:100AF00026C01092B0001092B1008091B0008260C8
:100B00008093B0008091B10081608093B100EEE8E5
:100B1000F0E0E491F0E0EE0FFF1FEE58FF4F8591FB
:100B2000949190930E0480930D04E2EAF0E0E49136
:100B3000E0930F04C2E003C0CE2FC7FD5DC061E0AB
:100B400088E00E941404CC23C1F1C23009F44CC0E7
:100B5000C130E9F480918100887F816080938100B9
:100B60008DED99E390938900809388008FEF9FEF3C
:100B7000DC018093FC039093FD03A093FE03B093EC
:100B8000FF0380916F00826080936F0035C0C23098
:100B900099F58DED8093B3008FEF9FEFDC0180938B
:100BA000100490931104A0931204B0931304809145
:100BB00070008260809370001FC085B5887F83605D
:100BC00085BD86EE87BD8FEF9FEFDC01809300042B
:100BD00090930104A0930204B093030480916E00EB
:100BE000826080936E0008C08091B100887F84602D
:100BF0008093B10086EECECFDF91CF91089500971C
:100C000069F0FC0101900020E9F73197AF01481B22
:100C1000590BBC0184E194E00C942B0180E090E03E
:100C20000895CF93DF93FC014481558160817181E8
:100C300084E194E00E942B01EC0183EA92E00E949F
:100C4000FF058C0F9D1FDF91CF910895CF93DF9308
:100C50000E94FF05EC0183EA92E00E94FF058C0FE1
:100C60009D1FDF91CF910895CF93DF93CDB7DEB76E
:100C70002E970FB6F894DEBF0FBECDBF789484B523
:100C8000826084BD84B5816084BD85B5826085BD88
:100C900085B5816085BD80916E00816080936E0016
:100CA0001092810080918100826080938100809108
:100CB00081008160809381008091800081608093B9
:100CC00080008091B10084608093B1008091B00079
:100CD00081608093B00080917A00846080937A0074
:100CE00080917A00826080937A0080917A0081609E
:100CF00080937A0080917A00806880937A001092C5
:100D0000C100E0912404F091250482E08083E09109
:100D10002004F09121041082E0912204F091230438
:100D20008FEC808310922C04E0912804F091290428
:100D300086E08083E0912604F09127048081806121
:100D40008083E0912604F09127048081886080836D
:100D5000E0912604F0912704808180688083E091EF
:100D60002604F091270480818F7D808362E082E0F9
:100D70000E94140462E083E00E94140462E084E0B4
:100D80000E94140461E08DE00E9414043CE2E32E12
:100D9000FF24F3944EE1842E912C5AE0C52ED12CE1
:100DA0006624639460E2762E8E01035F1F4F84E118
:100DB00094E00E947801181619060CF0BDC184E178
:100DC00094E00E9456018136910519F468EA71E0B9
:100DD0000BC08236910519F467E771E005C08336D0
:100DE000910589F465EB71E0CE0101960E94C7027E
:100DF000AD80BE80E981FA818091F4039091F50382
:100E000020E030E07FC18436910519F461E471E09F
:100E1000EBCF8536910519F462E671E0E5CF8636B1
:100E2000910519F462EE71E0DFCF8736910519F470
:100E300060E671E0D9CF8836910519F469E371E075
:100E4000D3CF8936910519F462E471E0CDCF8A36AB
:100E5000910519F464E271E0C7CF8B36910519F45E
:100E600067EA71E0C1CF8C36910519F46CEB71E043
:100E7000BBCF8D36910519F469E471E0B5CF8E369C
:100E8000910519F461E671E0AFCF8F36910519F441
:100E900068E471E0A9CF8037910519F46EE971E03B
:100EA000A3CF8137910519F466EA71E09DCF8237AF
:100EB000910519F466EB71E097CF8337910519F42A
:100EC00068E771E091CF8437910519F46AE471E025
:100ED0008BCF8537910519F46AEE71E085CF86379F
:100EE000910519F46DEA71E07FCF8737910519F408
:100EF00062ED71E079CF8837910519F469EE71E000
:100F000073CF8937910519F461ED71E06DCF8A37A0
:100F1000910519F460E471E067CF8032910519F40E
:100F20006AE171E061CF8133910519F46CE171E000
:100F30005BCF8233910519F463E271E055CF8333BF
:100F4000910519F46AE271E04FCF8433910519F4E9
:100F500066E971E049CF8533910519F461E371E0E9
:100F600043CF8633910519F468E371E03DCF8733B1
:100F7000910519F466E771E037CF8833910519F4CC
:100F80006FE371E031CF8933910519F46EE571E0BB
:100F90002BCF8033910519F466E471E025CF8E32B2
:100FA000910519F46DE471E01FCF8C32910519F4AD
:100FB00065E571E019CF8732910519F46DE571E0AF
:100FC00013CF8232910519F465E671E00DCF8F35AC
:100FD000910519F46DE671E007CF8A33910519F494
:100FE00065E771E001CF8B33910519F46DE771E08E
:100FF000FBCE8F33910519F465E871E0F5CE8132AF
:10100000910519F46DE871E0EFCE8D32910519F478
:1010100065E971E0E9CE8B32910519F46EE771E074
:10102000E3CE8F32910519F461EE71E0DDCE8832A6
:10103000910519F46DE971E0D7CE8932910519F463
:1010400064EA71E0D1CE8D33910519F46CEA71E058
:10105000CBCE8034910519F463EB71E0C5CE893BAA
:101060002FEF920719F46FE471E0BECE863EAFEF2A
:101070009A0719F46BEB71E0B7CE8A3EBFEF9B077E
:1010800019F462EC71E0B0CE833B2FEF920719F4B4
:1010900069EC71E0A9CE813FAFEF9A0719F460EDDA
:1010A00071E0A2CE833FBFEF9B0719F46FE571E0BB
:1010B0009BCE8C392FEF920719F467ED71E094CE37
:1010C0008F3BAFEF9A0719F460EE71E08DCE8F3948
:1010D0009F4F19F468EE71E087CE65EA72E084CE26
:1010E0003097A1F41092AF02AFEAB2E0AC014853DE
:1010F0005D4F6C91DA016C930196B7010E944A0D25
:101100002F5F3F4F2A153B0559F704C0DF01A20F9F
:10111000B31FECCF9093F5038093F4038091C60244
:101120009091C702280F391F3093C7022093C6023F
:10113000CE0101960E94C202809102018823E9F14A
:101140008091C6029091C70218161906B4F5E09175
:10115000C402F091C502E853FD4F80818E3219F42C
:1011600081E090E004C08D3229F483E090E00E9499
:10117000F70423C0803249F41092AA021092A90207
:10118000D092A702C092A6020AC08F32B1F4109288
:10119000AA021092A9029092A7028092A60210922F
:1011A00002011092A8020E94A1046093AB02709306
:1011B000AC028093AD029093AE020E94A1042090F5
:1011C000AB023090AC024090AD025090AE02A090C5
:1011D000A902B090AA02DC01CB0182199309A409EB
:1011E000B50995010B2C000C440B550B8217930786
:1011F000A407B50748F08091A802882329F08091C0
:101200000201882309F425C20E94A104AB01BC019C
:1012100042195309640975098091A6029091A702A9
:101220008A0D9B1D092E000CAA0BBB0B48175907F2
:101230006A077B0748F08091A802811105C0809160
:101240000201882309F40FC284E00E943403892B31
:10125000F9F48FEE91E00E94260661E08DE00E9495
:101260005D0364EF71E080E090E00E94670483E139
:101270000E945004909301018093000168EB7BE091
:1012800080E090E00E94670460E08DE00E945D03D2
:10129000A090B002B090B1024090000150900101C6
:1012A000A414B50454F0942D852D4A145B0414F451
:1012B0009A2D8B2D5201492E582E83E10E94500405
:1012C0008A159B054CF083E10E945004481659068C
:1012D0001CF083E10E94500483E10E945004A40C9E
:1012E000B51CB7FE03C0BFEFAB1ABB0AB594A794F9
:1012F0002091C2023091C302A816B906C4F0232B74
:1013000009F04BC081E090E09093C3028093C20249
:101310001092C1021092C0020E94A1047093BF02F9
:101320006093BE021092BD021092BC0236C0213002
:10133000310599F51092C3021092C2023093C10296
:101340002093C0020E94A1042091BE023091BF02EE
:10135000621B730B7093BB026093BA026F3071050E
:101360000CF099C166E572E0CE0101960E94C702B9
:10137000BE016F5F7F4F8DEB94E00E948E00CE0127
:1013800001960E94C2020E94A1046093B60270936B
:10139000B7028093B8029093B9028091C0029091F5
:1013A000C102892B09F432C10E94A1042091B60226
:1013B0003091B7024091B8025091B902DC01CB01E3
:1013C000821B930BA40BB50B8093B2029093B302D4
:1013D000A093B402B093B5020B97A109B1090A9783
:1013E000A105B10508F08BC04091C1045091C20421
:1013F0004115510509F472C018861F821A86198694
:101400001C861B866091BD047091BE046115710538
:1014100021F0CE0107960E949702CE0107960E9406
:10142000110683EC482E84E0582EA12CB12CB20179
:10143000CE0107960E94C100892BD1F4F501E55039
:10144000FA4F80811A8219821C821B821E821D82A1
:101450008D871E86F80101900020E9F73197AF01D2
:10146000401B510BB801CE0101960E94970227C084
:101470002FEFA21AB20A86E0480E511CA4E3AA1666
:10148000B104A9F665EA72E0CE0101960E94C70296
:10149000BE016F5F7F4FCE0107960E94C1005C01C5
:1014A000CE0101960E94C202AB2819F465EA72E0EF
:1014B00002C063EF71E0CE0101960E94C702BE0137
:1014C0006F5F7F4F87EB94E00E948E00CE01019604
:1014D0000E94C202CE0107960E94C20265EA72E033
:1014E000CE0101960E94C702BE016F5F7F4F8DEB58
:1014F00094E00E94F100CE0101960E94C202809108
:10150000B2029091B302A091B402B091B502459796
:10151000A109B1094E97A105B10508F04AC0809113
:10152000BC029091BD02892B69F587EB94E00E9483
:10153000110667EB74E081EB94E00E948E007982E3
:101540001A82A090B504B090B604BFEFAB1ABB0AE4
:10155000B50181EB94E00E947002882399F02091FC
:10156000B1043091B2048091B5049091B604BE01EB
:101570006F5F7F4F820F931F0E94860FB092B60459
:10158000A092B50465EA72E0CE0101960E94C702FE
:10159000BE016F5F7F4F87EB94E00E94F100CE01A8
:1015A00001960E94C20281E090E09093BD02809378
:1015B000BC028091B2029091B302A091B402B091AA
:1015C000B502C397A105B1050CF185EF91E00E942A
:1015D000FF0581EB94E00E9411061092C102109267
:1015E000C00265EA72E0CE0101960E94C702BE0108
:1015F0006F5F7F4F81EB94E00E94F100CE01019676
:101600000E94C2021092BD021092BC0282E00E94AF
:101610003403892B59F485E092E00E94260683E189
:101620000E9450049093B1028093B00283E00E9424
:101630003403892B59F489E092E00E94260683E165
:101640000E94500490930101809300010E941802AF
:10165000AECB60E08DE00E945D0388E00E948D03C8
:101660001092A802D1CD609202018091C4029091A3
:10167000C5020196B7010E944A0D9093C50280935E
:10168000C4028091C6029091C70201979093C7024D
:101690008093C602D9CD61E472E066CECF93DF932A
:1016A00081EB94E00E94C20287EB94E00E94C202A8
:1016B0008DEB94E00E94C202CBEFD5E02697CE01DD
:1016C0000E94C20284E0C33CD807C1F7DF91CF91EA
:1016D0000895E4E1F4E01382128288EE93E0A0E042
:1016E000B0E084839583A683B7838EE091E09183F5
:1016F000808385EC90E09587848784EC90E09787E1
:10170000868780EC90E0918B808B81EC90E0938BCE
:10171000828B82EC90E0958B848B86EC90E0978BAB
:10172000868B118E128E138E148EEBEFF5E081E610
:10173000808382E6818383E6828384E6838385E6F1
:10174000848386E6858387E6868388E6878389E6C1
:1017500080878AE681878BE682878CE683878DE6A1
:1017600084878EE685878FE6868780E7878781E78F
:10177000808B82E7818B83E7828B84E7838B85E78D
:10178000848B86E7858B87E7868B88E7878B89E75D
:10179000808F8AE7818F81E3828F82E3838F83E367
:1017A000848F84E3858F85E3868F86E3878F87E345
:1017B00080A388E381A389E382A380E383A38EE2ED
:1017C00084A38CE285A38DE092E086A382E287A3C6
:1017D0008FE580A78AE381A78BE382A78FE383A7A6
:1017E00081E284A78DE285A78BE286A78FE287A797
:1017F00088E280AB89E281AB8DE382AB80E483AB8E
:1018000063E972E083EC94E00E94C70268E672E04C
:1018100089EC94E00E94C7026EE972E08FEC94E0DC
:101820000E94C70269E372E085ED94E00E94C7025E
:1018300066E572E08BED94E00E94C7026AE572E013
:1018400081EE94E00E94C70264E572E087EE94E0C6
:101850000E94C70262E372E08DEE94E00E94C7022C
:101860006AE372E083EF94E00E94C70260E272E0F4
:1018700089EF94E00E94C70262E972E08FEF94E082
:101880000E94C7026FE072E085E095E00E94C70207
:1018900060E472E08BE095E00E94C70265E572E0CB
:1018A00081E195E00E94C7026FE372E087E195E075
:1018B0000E94C7026AE872E08DE195E00E94C702CB
:1018C00061E972E083E295E00E94C7026FE972E08D
:1018D00089E295E00E94C70269E672E08FE295E036
:1018E0000E94C70261E472E085E395E00E94C702AE
:1018F00065E172E08BE395E00E94C70267E972E060
:1019000081E495E00E94C7026EE772E087E495E00B
:101910000E94C70264E172E08DE495E00E94C70274
:101920006DE772E083E595E00E94C70268E372E02C
:1019300089E595E00E94C70269E172E08FE595E0D4
:101940000E94C7026FE172E085E695E00E94C7023F
:1019500065E272E08BE695E00E94C70263E872E000
:1019600081E795E00E94C7026BE272E087E795E0AD
:101970000E94C70261E372E08DE795E00E94C70212
:1019800067E672E083E895E00E94C70267E372E0D1
:1019900089E895E00E94C70262E572E08FE895E071
:1019A0000E94C7026DE372E085E995E00E94C702DC
:1019B00063E472E08BE995E00E94C7026AE472E09A
:1019C00081EA95E00E94C70261E572E087EA95E04E
:1019D0000E94C70268E572E08DEA95E00E94C702A6
:1019E0006FE572E083EB95E00E94C70266E672E065
:1019F00089EB95E00E94C7026DE672E08FEB95E0FF
:101A00000E94C70264E772E085EC95E00E94C7027D
:101A10006BE772E08BEC95E00E94C70262E872E02F
:101A200081ED95E00E94C7026EE672E087ED95E0D9
:101A30000E94C70269E572E08DED95E00E94C70241
:101A400069E872E083EE95E00E94C7026FE872E0F9
:101A500089EE95E00E94C70266E972E08FEE95E09C
:101A60000E94C7026CE972E085EF95E00E94C70210
:101A700065EA72E08DEB94E00E94C70265EA72E0CD
:101A800087EB94E00E94C70265EA72E081EB94E084
:101A90000C94C70297FB072E16F4009407D077FD2D
:101AA00009D00E945E0D07FC05D03EF4909581950B
:101AB0009F4F0895709561957F4F0895AA1BBB1B9A
:101AC00051E107C0AA1FBB1FA617B70710F0A61B3E
:101AD000B70B881F991F5A95A9F780959095BC015F
:101AE000CD010895EE0FFF1F0590F491E02D0994AC
:101AF000CF93DF938230910510F482E090E0E09183
:101B00003106F091320620E030E0C0E0D0E03097BE
:101B100011F14081518148175907C0F04817590702
:101B200061F482819381209719F09B838A832BC073
:101B3000909332068093310626C02115310519F0A5
:101B40004217530718F49A01BE01DF01EF0102802A
:101B5000F381E02DDCCF2115310509F1281B390B6C
:101B60002430310590F412968D919C911397611554
:101B7000710521F0FB019383828304C090933206A8
:101B800080933106FD01329644C0FD01E20FF31F40
:101B900081939193225031092D933C933AC0209127
:101BA0002F0630913006232B41F42091060130910D
:101BB00007013093300620932F06209104013091C5
:101BC00005012115310541F42DB73EB740910801BB
:101BD00050910901241B350BE0912F06F09130063E
:101BE000E217F307A0F42E1B3F0B2817390778F0F4
:101BF000AC014E5F5F4F2417350748F04E0F5F1F53
:101C00005093300640932F068193919302C0E0E0F9
:101C1000F0E0CF01DF91CF9108950F931F93CF9301
:101C2000DF93009709F48CC0FC0132971382128273
:101C300000913106109132060115110581F42081C1
:101C40003181820F931F20912F0630913006281783
:101C5000390779F5F0933006E0932F0671C0D8016B
:101C600040E050E0AE17BF0750F412962D913C9122
:101C70001397AD012115310509F1D901F3CF9D016C
:101C8000DA013383228360817181860F971F821767
:101C9000930769F4EC0128813981260F371F2E5FE5
:101CA0003F4F318320838A819B8193838283452B9D
:101CB00029F4F0933206E093310642C01396FC9368
:101CC000EE931297ED01499159919E01240F351F12
:101CD000E217F30771F480819181840F951F0296BA
:101CE00011969C938E938281938113969C938E93ED
:101CF0001297E0E0F0E0D80112968D919C91139735
:101D0000009719F0F8018C01F6CF8D919C91980104
:101D10002E5F3F4F820F931F20912F063091300688
:101D20002817390769F4309729F410923206109277
:101D3000310602C0138212821093300600932F06E0
:101D4000DF91CF911F910F910895A0E0B0E0EBEAF1
:101D5000FEE00C94910FEC01009721F4CB010E945E
:101D6000780DB8C0FC01E60FF71F9C012250310925
:101D7000E217F30708F4ACC0D9010D911C9111973B
:101D800006171707B0F00530110508F49FC0C80109
:101D900004978617970708F499C002501109061B8B
:101DA000170B019311936D937C93CF010E940D0E3D
:101DB0008DC05B01A01AB10A4C01800E911EA0914A
:101DC0003106B091320640E050E0E12CF12C109742
:101DD00009F44AC0A815B905D1F56D907C9011970A
:101DE000630182E0C80ED11CCA14DB0480F1A30198
:101DF0004A195B096A0182E0C80ED11C1296BC9098
:101E000012971396AC91B5E0CB16D10440F0B28294
:101E1000A38351834083D9016D937C930AC00E5FE5
:101E20001F4FC301800F911FF90191838083EB2D18
:101E3000FA2FE114F10431F0D7011396FC93EE93DD
:101E4000129744C0F0933206E09331063FC08D9163
:101E50009C9111974817590708F4AC017D0112961F
:101E60000D90BC91A02DB3CF80912F06909130069C
:101E700088159905E1F446175707C8F480910401C5
:101E800090910501009741F48DB79EB740910801EC
:101E900050910901841B950BE817F907C8F4F093DA
:101EA0003006E0932F06F901718360830FC0CB01E8
:101EB0000E94780D7C01009759F0A801BE010E9494
:101EC000740FCE010E940D0EC70104C0CE0102C0E6
:101ED00080E090E0CDB7DEB7EEE00C94AD0F81E08E
:101EE00090E0F8940C94C40FFB01DC0102C0019057
:101EF0000D9241505040D8F70895FB01DC018D91BF
:101F0000019080190110D9F3990B0895FB01DC01B0
:101F100001900D920020E1F708952F923F924F9289
:101F20005F926F927F928F929F92AF92BF92CF9269
:101F3000DF92EF92FF920F931F93CF93DF93CDB772
:101F4000DEB7CA1BDB0B0FB6F894DEBF0FBECDBFEA
:101F500009942A88398848885F846E847D848C84BB
:101F60009B84AA84B984C884DF80EE80FD800C81C4
:101F70001B81AA81B981CE0FD11D0FB6F894DEBFA7
:101F80000FBECDBFED01089510E0C3E6D0E004C060
:101F9000FE010E94720D2196C436D107C9F7F8944C
:021FA000FFCF71
:101FA200000401FF00003306800000000000AF01C2
:101FB2002B01780156016A01F6012F002E2D2D2DDD
:101FC2002D20002E2E2D2D2D20002E2E2E2D2D20BB
:101FD200002E2E2E2E2E20002D2E2E2E2E20002DC7
:101FE2002D2D2E2E20002D2D2D2D2D20002E2D2E8F
:101FF2002D2E2D20002D2D2E2E2D2D20002E2D2D7F
:102002002D2D2E20002E2D2E2E2D2E20002E2E2D6B
:102012002D2E2D20002D2D2D2E2E2E20002D2E2D5D
:102022002E2D2E20002E2E2D2D2E2E20002D2E2D4B
:102032002E2D2D20002D2E2E2E2E2D20002D2E2D3C
:102042002D2E20002D2E2D2D2E2D20002D2E2E2E2C
:102052002D20002E2D2D2E2D2E20002D2E2D2E2E1C
:1020620020002E2E2D2E2E20002E2D2E2E2D200045
:102072002D2D2E2D2D20002E2E2E2D2E2E2E2000FB
:102082002D2D2E2E2D2E20002D2D2E2E2D200062B8
:102092007574002A002323574941444F4D4F53433F
:1020A20023233A20006D696E006D61780027002EAF
:1020B2002D2E2E002D2E2E2D002E2D2D2D2D002ECF
:1020C2002E2D2D2D002E2E2E2D2D002E2E2E2E2E8F
:1020D200002D2E2E2E2E002D2D2D2E2E002D2D2DAF
:1020E2002D2D002E2D2E2D2E2D002D2D2E2E2D2D73
:1020F200002E2D2D2D2D2E002E2D2E2E2D2E002E8E
:102102002E2D2D2E2D002D2D2D2E2E2E002D2E2D51
:102112002E2D2E002E2E2D2D2E2E002D2E2D2E2D3F
:102122002D002D2E2E2E2E2D002D2E2D2D2E002D5E
:102132002E2D2D2E2D002D2E2E2E2D002E2D2D2E20
:062142002D2E000D0A0025
:107E0000112484B714BE81FFF0D085E080938100F7
:107E100082E08093C00088E18093C10086E0809377
:107E2000C20080E18093C4008EE0C9D0259A86E02C
:107E300020E33CEF91E0309385002093840096BBD3
:107E4000B09BFECF1D9AA8958150A9F7CC24DD24C4
:107E500088248394B5E0AB2EA1E19A2EF3E0BF2EE7
:107E6000A2D0813461F49FD0082FAFD0023811F036
:107E7000013811F484E001C083E08DD089C08234E0
:107E800011F484E103C0853419F485E0A6D080C0E4
:107E9000853579F488D0E82EFF2485D0082F10E0AE
:107EA000102F00270E291F29000F111F8ED06801E7
:107EB0006FC0863521F484E090D080E0DECF843638
:107EC00009F040C070D06FD0082F6DD080E0C81688
:107ED00080E7D80618F4F601B7BEE895C0E0D1E017
:107EE00062D089930C17E1F7F0E0CF16F0E7DF06D8
:107EF00018F0F601B7BEE89568D007B600FCFDCFD4
:107F0000A601A0E0B1E02C9130E011968C91119780
:107F100090E0982F8827822B932B1296FA010C0160
:107F200087BEE89511244E5F5F4FF1E0A038BF0790
:107F300051F7F601A7BEE89507B600FCFDCF97BE46
:107F4000E89526C08437B1F42ED02DD0F82E2BD052
:107F50003CD0F601EF2C8F010F5F1F4F84911BD097
:107F6000EA94F801C1F70894C11CD11CFA94CF0C13
:107F7000D11C0EC0853739F428D08EE10CD085E9AC
:107F80000AD08FE07ACF813511F488E018D01DD067
:107F900080E101D065CF982F8091C00085FFFCCF94
:107FA0009093C60008958091C00087FFFCCF809118
:107FB000C00084FD01C0A8958091C6000895E0E648
:107FC000F0E098E1908380830895EDDF803219F02E
:107FD00088E0F5DFFFCF84E1DECF1F93182FE3DFCA
:107FE0001150E9F7F2DF1F91089580E0E8DFEE27F6
:047FF000FF270994CA
:027FFE00040479
:0400000300007E007B
:00000001FF
